{
  "_format": "hh-sol-artifact-1",
  "contractName": "ShakerNFT",
  "sourceName": "contracts/Shakers.sol",
  "abi": [
    {
      "inputs": [],
      "stateMutability": "nonpayable",
      "type": "constructor"
    },
    {
      "anonymous": false,
      "inputs": [
        {
          "indexed": true,
          "internalType": "address",
          "name": "owner",
          "type": "address"
        },
        {
          "indexed": true,
          "internalType": "address",
          "name": "approved",
          "type": "address"
        },
        {
          "indexed": true,
          "internalType": "uint256",
          "name": "tokenId",
          "type": "uint256"
        }
      ],
      "name": "Approval",
      "type": "event"
    },
    {
      "anonymous": false,
      "inputs": [
        {
          "indexed": true,
          "internalType": "address",
          "name": "owner",
          "type": "address"
        },
        {
          "indexed": true,
          "internalType": "address",
          "name": "operator",
          "type": "address"
        },
        {
          "indexed": false,
          "internalType": "bool",
          "name": "approved",
          "type": "bool"
        }
      ],
      "name": "ApprovalForAll",
      "type": "event"
    },
    {
      "anonymous": false,
      "inputs": [
        {
          "indexed": true,
          "internalType": "address",
          "name": "previousOwner",
          "type": "address"
        },
        {
          "indexed": true,
          "internalType": "address",
          "name": "newOwner",
          "type": "address"
        }
      ],
      "name": "OwnershipTransferred",
      "type": "event"
    },
    {
      "anonymous": false,
      "inputs": [
        {
          "indexed": true,
          "internalType": "address",
          "name": "from",
          "type": "address"
        },
        {
          "indexed": true,
          "internalType": "address",
          "name": "to",
          "type": "address"
        },
        {
          "indexed": true,
          "internalType": "uint256",
          "name": "tokenId",
          "type": "uint256"
        }
      ],
      "name": "Transfer",
      "type": "event"
    },
    {
      "inputs": [
        {
          "internalType": "address",
          "name": "to",
          "type": "address"
        },
        {
          "internalType": "uint256",
          "name": "tokenId",
          "type": "uint256"
        }
      ],
      "name": "approve",
      "outputs": [],
      "stateMutability": "nonpayable",
      "type": "function"
    },
    {
      "inputs": [
        {
          "internalType": "address",
          "name": "owner",
          "type": "address"
        }
      ],
      "name": "balanceOf",
      "outputs": [
        {
          "internalType": "uint256",
          "name": "",
          "type": "uint256"
        }
      ],
      "stateMutability": "view",
      "type": "function"
    },
    {
      "inputs": [
        {
          "internalType": "uint256",
          "name": "tokenId",
          "type": "uint256"
        }
      ],
      "name": "getApproved",
      "outputs": [
        {
          "internalType": "address",
          "name": "",
          "type": "address"
        }
      ],
      "stateMutability": "view",
      "type": "function"
    },
    {
      "inputs": [],
      "name": "getPlayerShakerMetata",
      "outputs": [
        {
          "internalType": "string",
          "name": "",
          "type": "string"
        }
      ],
      "stateMutability": "view",
      "type": "function"
    },
    {
      "inputs": [
        {
          "internalType": "uint16",
          "name": "_level",
          "type": "uint16"
        },
        {
          "internalType": "uint8",
          "name": "_civilization",
          "type": "uint8"
        },
        {
          "internalType": "uint8",
          "name": "_stage",
          "type": "uint8"
        }
      ],
      "name": "getShakerHash",
      "outputs": [
        {
          "internalType": "bytes32",
          "name": "",
          "type": "bytes32"
        }
      ],
      "stateMutability": "pure",
      "type": "function"
    },
    {
      "inputs": [
        {
          "internalType": "uint16",
          "name": "_level",
          "type": "uint16"
        },
        {
          "internalType": "uint8",
          "name": "_civilization",
          "type": "uint8"
        },
        {
          "internalType": "uint8",
          "name": "_stage",
          "type": "uint8"
        }
      ],
      "name": "getShakerMetada",
      "outputs": [
        {
          "internalType": "string",
          "name": "",
          "type": "string"
        }
      ],
      "stateMutability": "view",
      "type": "function"
    },
    {
      "inputs": [
        {
          "internalType": "address",
          "name": "owner",
          "type": "address"
        },
        {
          "internalType": "address",
          "name": "operator",
          "type": "address"
        }
      ],
      "name": "isApprovedForAll",
      "outputs": [
        {
          "internalType": "bool",
          "name": "",
          "type": "bool"
        }
      ],
      "stateMutability": "view",
      "type": "function"
    },
    {
      "inputs": [
        {
          "internalType": "uint256",
          "name": "_characterIndex",
          "type": "uint256"
        }
      ],
      "name": "mintShaker",
      "outputs": [],
      "stateMutability": "nonpayable",
      "type": "function"
    },
    {
      "inputs": [],
      "name": "name",
      "outputs": [
        {
          "internalType": "string",
          "name": "",
          "type": "string"
        }
      ],
      "stateMutability": "view",
      "type": "function"
    },
    {
      "inputs": [],
      "name": "owner",
      "outputs": [
        {
          "internalType": "address",
          "name": "",
          "type": "address"
        }
      ],
      "stateMutability": "view",
      "type": "function"
    },
    {
      "inputs": [
        {
          "internalType": "uint256",
          "name": "tokenId",
          "type": "uint256"
        }
      ],
      "name": "ownerOf",
      "outputs": [
        {
          "internalType": "address",
          "name": "",
          "type": "address"
        }
      ],
      "stateMutability": "view",
      "type": "function"
    },
    {
      "inputs": [],
      "name": "primitiveShaker",
      "outputs": [
        {
          "components": [
            {
              "internalType": "uint16",
              "name": "level",
              "type": "uint16"
            },
            {
              "internalType": "uint8",
              "name": "civilization",
              "type": "uint8"
            },
            {
              "internalType": "uint8",
              "name": "stage",
              "type": "uint8"
            }
          ],
          "internalType": "struct ShakerNFT.Shaker",
          "name": "",
          "type": "tuple"
        }
      ],
      "stateMutability": "pure",
      "type": "function"
    },
    {
      "inputs": [],
      "name": "renounceOwnership",
      "outputs": [],
      "stateMutability": "nonpayable",
      "type": "function"
    },
    {
      "inputs": [
        {
          "internalType": "address",
          "name": "from",
          "type": "address"
        },
        {
          "internalType": "address",
          "name": "to",
          "type": "address"
        },
        {
          "internalType": "uint256",
          "name": "tokenId",
          "type": "uint256"
        }
      ],
      "name": "safeTransferFrom",
      "outputs": [],
      "stateMutability": "nonpayable",
      "type": "function"
    },
    {
      "inputs": [
        {
          "internalType": "address",
          "name": "from",
          "type": "address"
        },
        {
          "internalType": "address",
          "name": "to",
          "type": "address"
        },
        {
          "internalType": "uint256",
          "name": "tokenId",
          "type": "uint256"
        },
        {
          "internalType": "bytes",
          "name": "_data",
          "type": "bytes"
        }
      ],
      "name": "safeTransferFrom",
      "outputs": [],
      "stateMutability": "nonpayable",
      "type": "function"
    },
    {
      "inputs": [
        {
          "internalType": "address",
          "name": "operator",
          "type": "address"
        },
        {
          "internalType": "bool",
          "name": "approved",
          "type": "bool"
        }
      ],
      "name": "setApprovalForAll",
      "outputs": [],
      "stateMutability": "nonpayable",
      "type": "function"
    },
    {
      "inputs": [
        {
          "internalType": "uint16",
          "name": "_level",
          "type": "uint16"
        },
        {
          "internalType": "uint8",
          "name": "_civilization",
          "type": "uint8"
        },
        {
          "internalType": "uint8",
          "name": "_stage",
          "type": "uint8"
        },
        {
          "internalType": "string",
          "name": "_link",
          "type": "string"
        }
      ],
      "name": "setShakerMetadata",
      "outputs": [],
      "stateMutability": "nonpayable",
      "type": "function"
    },
    {
      "inputs": [
        {
          "internalType": "bytes4",
          "name": "interfaceId",
          "type": "bytes4"
        }
      ],
      "name": "supportsInterface",
      "outputs": [
        {
          "internalType": "bool",
          "name": "",
          "type": "bool"
        }
      ],
      "stateMutability": "view",
      "type": "function"
    },
    {
      "inputs": [],
      "name": "symbol",
      "outputs": [
        {
          "internalType": "string",
          "name": "",
          "type": "string"
        }
      ],
      "stateMutability": "view",
      "type": "function"
    },
    {
      "inputs": [
        {
          "internalType": "uint256",
          "name": "tokenId",
          "type": "uint256"
        }
      ],
      "name": "tokenURI",
      "outputs": [
        {
          "internalType": "string",
          "name": "",
          "type": "string"
        }
      ],
      "stateMutability": "view",
      "type": "function"
    },
    {
      "inputs": [
        {
          "internalType": "address",
          "name": "from",
          "type": "address"
        },
        {
          "internalType": "address",
          "name": "to",
          "type": "address"
        },
        {
          "internalType": "uint256",
          "name": "tokenId",
          "type": "uint256"
        }
      ],
      "name": "transferFrom",
      "outputs": [],
      "stateMutability": "nonpayable",
      "type": "function"
    },
    {
      "inputs": [
        {
          "internalType": "address",
          "name": "newOwner",
          "type": "address"
        }
      ],
      "name": "transferOwnership",
      "outputs": [],
      "stateMutability": "nonpayable",
      "type": "function"
    }
  ],
  "bytecode": "0x608060405260006007553480156200001657600080fd5b506040518060400160405280600681526020017f5368616b657200000000000000000000000000000000000000000000000000008152506040518060400160405280600381526020017f534b52000000000000000000000000000000000000000000000000000000000081525081600090805190602001906200009b929190620001ab565b508060019080519060200190620000b4929190620001ab565b505050620000d7620000cb620000dd60201b60201c565b620000e560201b60201c565b620002c0565b600033905090565b6000600660009054906101000a900473ffffffffffffffffffffffffffffffffffffffff16905081600660006101000a81548173ffffffffffffffffffffffffffffffffffffffff021916908373ffffffffffffffffffffffffffffffffffffffff1602179055508173ffffffffffffffffffffffffffffffffffffffff168173ffffffffffffffffffffffffffffffffffffffff167f8be0079c531659141344cd1fd0a4f28419497f9722a3daafe3b4186f6b6457e060405160405180910390a35050565b828054620001b9906200028a565b90600052602060002090601f016020900481019282620001dd576000855562000229565b82601f10620001f857805160ff191683800117855562000229565b8280016001018555821562000229579182015b82811115620002285782518255916020019190600101906200020b565b5b5090506200023891906200023c565b5090565b5b80821115620002575760008160009055506001016200023d565b5090565b7f4e487b7100000000000000000000000000000000000000000000000000000000600052602260045260246000fd5b60006002820490506001821680620002a357607f821691505b60208210811415620002ba57620002b96200025b565b5b50919050565b61350280620002d06000396000f3fe608060405234801561001057600080fd5b50600436106101425760003560e01c806370a08231116100b8578063a22cb4651161007c578063a22cb46514610363578063b88d4fde1461037f578063c87b56dd1461039b578063e0d6a0da146103cb578063e985e9c5146103fb578063f2fde38b1461042b57610142565b806370a08231146102cf578063715018a6146102ff5780638da5cb5b146103095780638ebd62f41461032757806395d89b411461034557610142565b806323b872dd1161010a57806323b872dd1461021157806342842e0e1461022d57806347f3bea2146102495780634a5248c5146102675780636352211e146102835780636d7441c6146102b357610142565b806301ffc9a71461014757806306fdde0314610177578063081812fc14610195578063095ea7b3146101c5578063145e9b51146101e1575b600080fd5b610161600480360381019061015c9190611f83565b610447565b60405161016e9190611fcb565b60405180910390f35b61017f610529565b60405161018c919061207f565b60405180910390f35b6101af60048036038101906101aa91906120d7565b6105bb565b6040516101bc9190612145565b60405180910390f35b6101df60048036038101906101da919061218c565b610640565b005b6101fb60048036038101906101f6919061223f565b610758565b604051610208919061207f565b60405180910390f35b61022b60048036038101906102269190612292565b61080f565b005b61024760048036038101906102429190612292565b61086f565b005b61025161088f565b60405161025e9190612345565b60405180910390f35b610281600480360381019061027c91906120d7565b6108c4565b005b61029d600480360381019061029891906120d7565b6109fa565b6040516102aa9190612145565b60405180910390f35b6102cd60048036038101906102c891906123c5565b610aac565b005b6102e960048036038101906102e4919061244d565b610b62565b6040516102f69190612489565b60405180910390f35b610307610c1a565b005b610311610ca2565b60405161031e9190612145565b60405180910390f35b61032f610ccc565b60405161033c919061207f565b60405180910390f35b61034d610deb565b60405161035a919061207f565b60405180910390f35b61037d600480360381019061037891906124d0565b610e7d565b005b61039960048036038101906103949190612640565b610e93565b005b6103b560048036038101906103b091906120d7565b610ef5565b6040516103c2919061207f565b60405180910390f35b6103e560048036038101906103e0919061223f565b610f9c565b6040516103f291906126dc565b60405180910390f35b610415600480360381019061041091906126f7565b610fd2565b6040516104229190611fcb565b60405180910390f35b6104456004803603810190610440919061244d565b611066565b005b60007f80ac58cd000000000000000000000000000000000000000000000000000000007bffffffffffffffffffffffffffffffffffffffffffffffffffffffff1916827bffffffffffffffffffffffffffffffffffffffffffffffffffffffff1916148061051257507f5b5e139f000000000000000000000000000000000000000000000000000000007bffffffffffffffffffffffffffffffffffffffffffffffffffffffff1916827bffffffffffffffffffffffffffffffffffffffffffffffffffffffff1916145b8061052257506105218261115e565b5b9050919050565b60606000805461053890612766565b80601f016020809104026020016040519081016040528092919081815260200182805461056490612766565b80156105b15780601f10610586576101008083540402835291602001916105b1565b820191906000526020600020905b81548152906001019060200180831161059457829003601f168201915b5050505050905090565b60006105c6826111c8565b610605576040517f08c379a00000000000000000000000000000000000000000000000000000000081526004016105fc9061280a565b60405180910390fd5b6004600083815260200190815260200160002060009054906101000a900473ffffffffffffffffffffffffffffffffffffffff169050919050565b600061064b826109fa565b90508073ffffffffffffffffffffffffffffffffffffffff168373ffffffffffffffffffffffffffffffffffffffff1614156106bc576040517f08c379a00000000000000000000000000000000000000000000000000000000081526004016106b39061289c565b60405180910390fd5b8073ffffffffffffffffffffffffffffffffffffffff166106db611234565b73ffffffffffffffffffffffffffffffffffffffff16148061070a575061070981610704611234565b610fd2565b5b610749576040517f08c379a00000000000000000000000000000000000000000000000000000000081526004016107409061292e565b60405180910390fd5b610753838361123c565b505050565b60606000610767858585610f9c565b905060096000828152602001908152602001600020805461078790612766565b80601f01602080910402602001604051908101604052809291908181526020018280546107b390612766565b80156108005780601f106107d557610100808354040283529160200191610800565b820191906000526020600020905b8154815290600101906020018083116107e357829003601f168201915b50505050509150509392505050565b61082061081a611234565b826112f5565b61085f576040517f08c379a0000000000000000000000000000000000000000000000000000000008152600401610856906129c0565b60405180910390fd5b61086a8383836113d3565b505050565b61088a83838360405180602001604052806000815250610e93565b505050565b610897611e49565b6040518060600160405280600061ffff168152602001600060ff168152602001600060ff16815250905090565b60006108ce611234565b905060016108db82610b62565b1061091b576040517f08c379a000000000000000000000000000000000000000000000000000000000815260040161091290612a52565b60405180910390fd5b6000600754905061092c828261163a565b61093461088f565b600860008473ffffffffffffffffffffffffffffffffffffffff1673ffffffffffffffffffffffffffffffffffffffff16815260200190815260200160002060008201518160000160006101000a81548161ffff021916908361ffff16021790555060208201518160000160026101000a81548160ff021916908360ff16021790555060408201518160000160036101000a81548160ff021916908360ff1602179055509050506001600760008282546109ee9190612aa1565b92505081905550505050565b6000806002600084815260200190815260200160002060009054906101000a900473ffffffffffffffffffffffffffffffffffffffff169050600073ffffffffffffffffffffffffffffffffffffffff168173ffffffffffffffffffffffffffffffffffffffff161415610aa3576040517f08c379a0000000000000000000000000000000000000000000000000000000008152600401610a9a90612b69565b60405180910390fd5b80915050919050565b610ab4611234565b73ffffffffffffffffffffffffffffffffffffffff16610ad2610ca2565b73ffffffffffffffffffffffffffffffffffffffff1614610b28576040517f08c379a0000000000000000000000000000000000000000000000000000000008152600401610b1f90612bd5565b60405180910390fd5b6000610b35868686610f9c565b90508282600960008481526020019081526020016000209190610b59929190611e74565b50505050505050565b60008073ffffffffffffffffffffffffffffffffffffffff168273ffffffffffffffffffffffffffffffffffffffff161415610bd3576040517f08c379a0000000000000000000000000000000000000000000000000000000008152600401610bca90612c67565b60405180910390fd5b600360008373ffffffffffffffffffffffffffffffffffffffff1673ffffffffffffffffffffffffffffffffffffffff168152602001908152602001600020549050919050565b610c22611234565b73ffffffffffffffffffffffffffffffffffffffff16610c40610ca2565b73ffffffffffffffffffffffffffffffffffffffff1614610c96576040517f08c379a0000000000000000000000000000000000000000000000000000000008152600401610c8d90612bd5565b60405180910390fd5b610ca06000611658565b565b6000600660009054906101000a900473ffffffffffffffffffffffffffffffffffffffff16905090565b60606000610cd8611234565b90506001610ce582610b62565b14610d25576040517f08c379a0000000000000000000000000000000000000000000000000000000008152600401610d1c90612cd3565b60405180910390fd5b6000600860008373ffffffffffffffffffffffffffffffffffffffff1673ffffffffffffffffffffffffffffffffffffffff1681526020019081526020016000206040518060600160405290816000820160009054906101000a900461ffff1661ffff1661ffff1681526020016000820160029054906101000a900460ff1660ff1660ff1681526020016000820160039054906101000a900460ff1660ff1660ff16815250509050610de4816000015182602001518360400151610758565b9250505090565b606060018054610dfa90612766565b80601f0160208091040260200160405190810160405280929190818152602001828054610e2690612766565b8015610e735780601f10610e4857610100808354040283529160200191610e73565b820191906000526020600020905b815481529060010190602001808311610e5657829003601f168201915b5050505050905090565b610e8f610e88611234565b838361171e565b5050565b610ea4610e9e611234565b836112f5565b610ee3576040517f08c379a0000000000000000000000000000000000000000000000000000000008152600401610eda906129c0565b60405180910390fd5b610eef8484848461188b565b50505050565b6060610f00826111c8565b610f3f576040517f08c379a0000000000000000000000000000000000000000000000000000000008152600401610f3690612d65565b60405180910390fd5b6000610f496118e7565b90506000815111610f695760405180602001604052806000815250610f94565b80610f73846118fe565b604051602001610f84929190612dc1565b6040516020818303038152906040525b915050919050565b6000838383604051602001610fb393929190612e51565b6040516020818303038152906040528051906020012090509392505050565b6000600560008473ffffffffffffffffffffffffffffffffffffffff1673ffffffffffffffffffffffffffffffffffffffff16815260200190815260200160002060008373ffffffffffffffffffffffffffffffffffffffff1673ffffffffffffffffffffffffffffffffffffffff16815260200190815260200160002060009054906101000a900460ff16905092915050565b61106e611234565b73ffffffffffffffffffffffffffffffffffffffff1661108c610ca2565b73ffffffffffffffffffffffffffffffffffffffff16146110e2576040517f08c379a00000000000000000000000000000000000000000000000000000000081526004016110d990612bd5565b60405180910390fd5b600073ffffffffffffffffffffffffffffffffffffffff168173ffffffffffffffffffffffffffffffffffffffff161415611152576040517f08c379a000000000000000000000000000000000000000000000000000000000815260040161114990612f00565b60405180910390fd5b61115b81611658565b50565b60007f01ffc9a7000000000000000000000000000000000000000000000000000000007bffffffffffffffffffffffffffffffffffffffffffffffffffffffff1916827bffffffffffffffffffffffffffffffffffffffffffffffffffffffff1916149050919050565b60008073ffffffffffffffffffffffffffffffffffffffff166002600084815260200190815260200160002060009054906101000a900473ffffffffffffffffffffffffffffffffffffffff1673ffffffffffffffffffffffffffffffffffffffff1614159050919050565b600033905090565b816004600083815260200190815260200160002060006101000a81548173ffffffffffffffffffffffffffffffffffffffff021916908373ffffffffffffffffffffffffffffffffffffffff160217905550808273ffffffffffffffffffffffffffffffffffffffff166112af836109fa565b73ffffffffffffffffffffffffffffffffffffffff167f8c5be1e5ebec7d5bd14f71427d1e84f3dd0314c0f7b2291e5b200ac8c7c3b92560405160405180910390a45050565b6000611300826111c8565b61133f576040517f08c379a000000000000000000000000000000000000000000000000000000000815260040161133690612f92565b60405180910390fd5b600061134a836109fa565b90508073ffffffffffffffffffffffffffffffffffffffff168473ffffffffffffffffffffffffffffffffffffffff1614806113b957508373ffffffffffffffffffffffffffffffffffffffff166113a1846105bb565b73ffffffffffffffffffffffffffffffffffffffff16145b806113ca57506113c98185610fd2565b5b91505092915050565b8273ffffffffffffffffffffffffffffffffffffffff166113f3826109fa565b73ffffffffffffffffffffffffffffffffffffffff1614611449576040517f08c379a000000000000000000000000000000000000000000000000000000000815260040161144090613024565b60405180910390fd5b600073ffffffffffffffffffffffffffffffffffffffff168273ffffffffffffffffffffffffffffffffffffffff1614156114b9576040517f08c379a00000000000000000000000000000000000000000000000000000000081526004016114b0906130b6565b60405180910390fd5b6114c4838383611a5f565b6114cf60008261123c565b6001600360008573ffffffffffffffffffffffffffffffffffffffff1673ffffffffffffffffffffffffffffffffffffffff168152602001908152602001600020600082825461151f91906130d6565b925050819055506001600360008473ffffffffffffffffffffffffffffffffffffffff1673ffffffffffffffffffffffffffffffffffffffff16815260200190815260200160002060008282546115769190612aa1565b92505081905550816002600083815260200190815260200160002060006101000a81548173ffffffffffffffffffffffffffffffffffffffff021916908373ffffffffffffffffffffffffffffffffffffffff160217905550808273ffffffffffffffffffffffffffffffffffffffff168473ffffffffffffffffffffffffffffffffffffffff167fddf252ad1be2c89b69c2b068fc378daa952ba7f163c4a11628f55a4df523b3ef60405160405180910390a4611635838383611a64565b505050565b611654828260405180602001604052806000815250611a69565b5050565b6000600660009054906101000a900473ffffffffffffffffffffffffffffffffffffffff16905081600660006101000a81548173ffffffffffffffffffffffffffffffffffffffff021916908373ffffffffffffffffffffffffffffffffffffffff1602179055508173ffffffffffffffffffffffffffffffffffffffff168173ffffffffffffffffffffffffffffffffffffffff167f8be0079c531659141344cd1fd0a4f28419497f9722a3daafe3b4186f6b6457e060405160405180910390a35050565b8173ffffffffffffffffffffffffffffffffffffffff168373ffffffffffffffffffffffffffffffffffffffff16141561178d576040517f08c379a000000000000000000000000000000000000000000000000000000000815260040161178490613156565b60405180910390fd5b80600560008573ffffffffffffffffffffffffffffffffffffffff1673ffffffffffffffffffffffffffffffffffffffff16815260200190815260200160002060008473ffffffffffffffffffffffffffffffffffffffff1673ffffffffffffffffffffffffffffffffffffffff16815260200190815260200160002060006101000a81548160ff0219169083151502179055508173ffffffffffffffffffffffffffffffffffffffff168373ffffffffffffffffffffffffffffffffffffffff167f17307eab39ab6107e8899845ad3d59bd9653f200f220920489ca2b5937696c318360405161187e9190611fcb565b60405180910390a3505050565b6118968484846113d3565b6118a284848484611ac4565b6118e1576040517f08c379a00000000000000000000000000000000000000000000000000000000081526004016118d8906131e8565b60405180910390fd5b50505050565b606060405180602001604052806000815250905090565b60606000821415611946576040518060400160405280600181526020017f30000000000000000000000000000000000000000000000000000000000000008152509050611a5a565b600082905060005b6000821461197857808061196190613208565b915050600a826119719190613280565b915061194e565b60008167ffffffffffffffff81111561199457611993612515565b5b6040519080825280601f01601f1916602001820160405280156119c65781602001600182028036833780820191505090505b5090505b60008514611a53576001826119df91906130d6565b9150600a856119ee91906132b1565b60306119fa9190612aa1565b60f81b818381518110611a1057611a0f6132e2565b5b60200101907effffffffffffffffffffffffffffffffffffffffffffffffffffffffffffff1916908160001a905350600a85611a4c9190613280565b94506119ca565b8093505050505b919050565b505050565b505050565b611a738383611c4c565b611a806000848484611ac4565b611abf576040517f08c379a0000000000000000000000000000000000000000000000000000000008152600401611ab6906131e8565b60405180910390fd5b505050565b6000611ae58473ffffffffffffffffffffffffffffffffffffffff16611e26565b15611c3f578373ffffffffffffffffffffffffffffffffffffffff1663150b7a02611b0e611234565b8786866040518563ffffffff1660e01b8152600401611b309493929190613366565b6020604051808303816000875af1925050508015611b6c57506040513d601f19601f82011682018060405250810190611b6991906133c7565b60015b611bef573d8060008114611b9c576040519150601f19603f3d011682016040523d82523d6000602084013e611ba1565b606091505b50600081511415611be7576040517f08c379a0000000000000000000000000000000000000000000000000000000008152600401611bde906131e8565b60405180910390fd5b805181602001fd5b63150b7a0260e01b7bffffffffffffffffffffffffffffffffffffffffffffffffffffffff1916817bffffffffffffffffffffffffffffffffffffffffffffffffffffffff191614915050611c44565b600190505b949350505050565b600073ffffffffffffffffffffffffffffffffffffffff168273ffffffffffffffffffffffffffffffffffffffff161415611cbc576040517f08c379a0000000000000000000000000000000000000000000000000000000008152600401611cb390613440565b60405180910390fd5b611cc5816111c8565b15611d05576040517f08c379a0000000000000000000000000000000000000000000000000000000008152600401611cfc906134ac565b60405180910390fd5b611d1160008383611a5f565b6001600360008473ffffffffffffffffffffffffffffffffffffffff1673ffffffffffffffffffffffffffffffffffffffff1681526020019081526020016000206000828254611d619190612aa1565b92505081905550816002600083815260200190815260200160002060006101000a81548173ffffffffffffffffffffffffffffffffffffffff021916908373ffffffffffffffffffffffffffffffffffffffff160217905550808273ffffffffffffffffffffffffffffffffffffffff16600073ffffffffffffffffffffffffffffffffffffffff167fddf252ad1be2c89b69c2b068fc378daa952ba7f163c4a11628f55a4df523b3ef60405160405180910390a4611e2260008383611a64565b5050565b6000808273ffffffffffffffffffffffffffffffffffffffff163b119050919050565b6040518060600160405280600061ffff168152602001600060ff168152602001600060ff1681525090565b828054611e8090612766565b90600052602060002090601f016020900481019282611ea25760008555611ee9565b82601f10611ebb57803560ff1916838001178555611ee9565b82800160010185558215611ee9579182015b82811115611ee8578235825591602001919060010190611ecd565b5b509050611ef69190611efa565b5090565b5b80821115611f13576000816000905550600101611efb565b5090565b6000604051905090565b600080fd5b600080fd5b60007fffffffff0000000000000000000000000000000000000000000000000000000082169050919050565b611f6081611f2b565b8114611f6b57600080fd5b50565b600081359050611f7d81611f57565b92915050565b600060208284031215611f9957611f98611f21565b5b6000611fa784828501611f6e565b91505092915050565b60008115159050919050565b611fc581611fb0565b82525050565b6000602082019050611fe06000830184611fbc565b92915050565b600081519050919050565b600082825260208201905092915050565b60005b83811015612020578082015181840152602081019050612005565b8381111561202f576000848401525b50505050565b6000601f19601f8301169050919050565b600061205182611fe6565b61205b8185611ff1565b935061206b818560208601612002565b61207481612035565b840191505092915050565b600060208201905081810360008301526120998184612046565b905092915050565b6000819050919050565b6120b4816120a1565b81146120bf57600080fd5b50565b6000813590506120d1816120ab565b92915050565b6000602082840312156120ed576120ec611f21565b5b60006120fb848285016120c2565b91505092915050565b600073ffffffffffffffffffffffffffffffffffffffff82169050919050565b600061212f82612104565b9050919050565b61213f81612124565b82525050565b600060208201905061215a6000830184612136565b92915050565b61216981612124565b811461217457600080fd5b50565b60008135905061218681612160565b92915050565b600080604083850312156121a3576121a2611f21565b5b60006121b185828601612177565b92505060206121c2858286016120c2565b9150509250929050565b600061ffff82169050919050565b6121e3816121cc565b81146121ee57600080fd5b50565b600081359050612200816121da565b92915050565b600060ff82169050919050565b61221c81612206565b811461222757600080fd5b50565b60008135905061223981612213565b92915050565b60008060006060848603121561225857612257611f21565b5b6000612266868287016121f1565b93505060206122778682870161222a565b92505060406122888682870161222a565b9150509250925092565b6000806000606084860312156122ab576122aa611f21565b5b60006122b986828701612177565b93505060206122ca86828701612177565b92505060406122db868287016120c2565b9150509250925092565b6122ee816121cc565b82525050565b6122fd81612206565b82525050565b60608201600082015161231960008501826122e5565b50602082015161232c60208501826122f4565b50604082015161233f60408501826122f4565b50505050565b600060608201905061235a6000830184612303565b92915050565b600080fd5b600080fd5b600080fd5b60008083601f84011261238557612384612360565b5b8235905067ffffffffffffffff8111156123a2576123a1612365565b5b6020830191508360018202830111156123be576123bd61236a565b5b9250929050565b6000806000806000608086880312156123e1576123e0611f21565b5b60006123ef888289016121f1565b95505060206124008882890161222a565b94505060406124118882890161222a565b935050606086013567ffffffffffffffff81111561243257612431611f26565b5b61243e8882890161236f565b92509250509295509295909350565b60006020828403121561246357612462611f21565b5b600061247184828501612177565b91505092915050565b612483816120a1565b82525050565b600060208201905061249e600083018461247a565b92915050565b6124ad81611fb0565b81146124b857600080fd5b50565b6000813590506124ca816124a4565b92915050565b600080604083850312156124e7576124e6611f21565b5b60006124f585828601612177565b9250506020612506858286016124bb565b9150509250929050565b600080fd5b7f4e487b7100000000000000000000000000000000000000000000000000000000600052604160045260246000fd5b61254d82612035565b810181811067ffffffffffffffff8211171561256c5761256b612515565b5b80604052505050565b600061257f611f17565b905061258b8282612544565b919050565b600067ffffffffffffffff8211156125ab576125aa612515565b5b6125b482612035565b9050602081019050919050565b82818337600083830152505050565b60006125e36125de84612590565b612575565b9050828152602081018484840111156125ff576125fe612510565b5b61260a8482856125c1565b509392505050565b600082601f83011261262757612626612360565b5b81356126378482602086016125d0565b91505092915050565b6000806000806080858703121561265a57612659611f21565b5b600061266887828801612177565b945050602061267987828801612177565b935050604061268a878288016120c2565b925050606085013567ffffffffffffffff8111156126ab576126aa611f26565b5b6126b787828801612612565b91505092959194509250565b6000819050919050565b6126d6816126c3565b82525050565b60006020820190506126f160008301846126cd565b92915050565b6000806040838503121561270e5761270d611f21565b5b600061271c85828601612177565b925050602061272d85828601612177565b9150509250929050565b7f4e487b7100000000000000000000000000000000000000000000000000000000600052602260045260246000fd5b6000600282049050600182168061277e57607f821691505b6020821081141561279257612791612737565b5b50919050565b7f4552433732313a20617070726f76656420717565727920666f72206e6f6e657860008201527f697374656e7420746f6b656e0000000000000000000000000000000000000000602082015250565b60006127f4602c83611ff1565b91506127ff82612798565b604082019050919050565b60006020820190508181036000830152612823816127e7565b9050919050565b7f4552433732313a20617070726f76616c20746f2063757272656e74206f776e6560008201527f7200000000000000000000000000000000000000000000000000000000000000602082015250565b6000612886602183611ff1565b91506128918261282a565b604082019050919050565b600060208201905081810360008301526128b581612879565b9050919050565b7f4552433732313a20617070726f76652063616c6c6572206973206e6f74206f7760008201527f6e6572206e6f7220617070726f76656420666f7220616c6c0000000000000000602082015250565b6000612918603883611ff1565b9150612923826128bc565b604082019050919050565b600060208201905081810360008301526129478161290b565b9050919050565b7f4552433732313a207472616e736665722063616c6c6572206973206e6f74206f60008201527f776e6572206e6f7220617070726f766564000000000000000000000000000000602082015250565b60006129aa603183611ff1565b91506129b58261294e565b604082019050919050565b600060208201905081810360008301526129d98161299d565b9050919050565b7f416c7265616479206f776e73206d6178696d756d206e756d626572206f66207360008201527f68616b6572730000000000000000000000000000000000000000000000000000602082015250565b6000612a3c602683611ff1565b9150612a47826129e0565b604082019050919050565b60006020820190508181036000830152612a6b81612a2f565b9050919050565b7f4e487b7100000000000000000000000000000000000000000000000000000000600052601160045260246000fd5b6000612aac826120a1565b9150612ab7836120a1565b9250827fffffffffffffffffffffffffffffffffffffffffffffffffffffffffffffffff03821115612aec57612aeb612a72565b5b828201905092915050565b7f4552433732313a206f776e657220717565727920666f72206e6f6e657869737460008201527f656e7420746f6b656e0000000000000000000000000000000000000000000000602082015250565b6000612b53602983611ff1565b9150612b5e82612af7565b604082019050919050565b60006020820190508181036000830152612b8281612b46565b9050919050565b7f4f776e61626c653a2063616c6c6572206973206e6f7420746865206f776e6572600082015250565b6000612bbf602083611ff1565b9150612bca82612b89565b602082019050919050565b60006020820190508181036000830152612bee81612bb2565b9050919050565b7f4552433732313a2062616c616e636520717565727920666f7220746865207a6560008201527f726f206164647265737300000000000000000000000000000000000000000000602082015250565b6000612c51602a83611ff1565b9150612c5c82612bf5565b604082019050919050565b60006020820190508181036000830152612c8081612c44565b9050919050565b7f506c6179657220646f6573206e6f74206f776e2061207368616b657200000000600082015250565b6000612cbd601c83611ff1565b9150612cc882612c87565b602082019050919050565b60006020820190508181036000830152612cec81612cb0565b9050919050565b7f4552433732314d657461646174613a2055524920717565727920666f72206e6f60008201527f6e6578697374656e7420746f6b656e0000000000000000000000000000000000602082015250565b6000612d4f602f83611ff1565b9150612d5a82612cf3565b604082019050919050565b60006020820190508181036000830152612d7e81612d42565b9050919050565b600081905092915050565b6000612d9b82611fe6565b612da58185612d85565b9350612db5818560208601612002565b80840191505092915050565b6000612dcd8285612d90565b9150612dd98284612d90565b91508190509392505050565b60008160f01b9050919050565b6000612dfd82612de5565b9050919050565b612e15612e10826121cc565b612df2565b82525050565b60008160f81b9050919050565b6000612e3382612e1b565b9050919050565b612e4b612e4682612206565b612e28565b82525050565b6000612e5d8286612e04565b600282019150612e6d8285612e3a565b600182019150612e7d8284612e3a565b600182019150819050949350505050565b7f4f776e61626c653a206e6577206f776e657220697320746865207a65726f206160008201527f6464726573730000000000000000000000000000000000000000000000000000602082015250565b6000612eea602683611ff1565b9150612ef582612e8e565b604082019050919050565b60006020820190508181036000830152612f1981612edd565b9050919050565b7f4552433732313a206f70657261746f7220717565727920666f72206e6f6e657860008201527f697374656e7420746f6b656e0000000000000000000000000000000000000000602082015250565b6000612f7c602c83611ff1565b9150612f8782612f20565b604082019050919050565b60006020820190508181036000830152612fab81612f6f565b9050919050565b7f4552433732313a207472616e736665722066726f6d20696e636f72726563742060008201527f6f776e6572000000000000000000000000000000000000000000000000000000602082015250565b600061300e602583611ff1565b915061301982612fb2565b604082019050919050565b6000602082019050818103600083015261303d81613001565b9050919050565b7f4552433732313a207472616e7366657220746f20746865207a65726f2061646460008201527f7265737300000000000000000000000000000000000000000000000000000000602082015250565b60006130a0602483611ff1565b91506130ab82613044565b604082019050919050565b600060208201905081810360008301526130cf81613093565b9050919050565b60006130e1826120a1565b91506130ec836120a1565b9250828210156130ff576130fe612a72565b5b828203905092915050565b7f4552433732313a20617070726f766520746f2063616c6c657200000000000000600082015250565b6000613140601983611ff1565b915061314b8261310a565b602082019050919050565b6000602082019050818103600083015261316f81613133565b9050919050565b7f4552433732313a207472616e7366657220746f206e6f6e20455243373231526560008201527f63656976657220696d706c656d656e7465720000000000000000000000000000602082015250565b60006131d2603283611ff1565b91506131dd82613176565b604082019050919050565b60006020820190508181036000830152613201816131c5565b9050919050565b6000613213826120a1565b91507fffffffffffffffffffffffffffffffffffffffffffffffffffffffffffffffff82141561324657613245612a72565b5b600182019050919050565b7f4e487b7100000000000000000000000000000000000000000000000000000000600052601260045260246000fd5b600061328b826120a1565b9150613296836120a1565b9250826132a6576132a5613251565b5b828204905092915050565b60006132bc826120a1565b91506132c7836120a1565b9250826132d7576132d6613251565b5b828206905092915050565b7f4e487b7100000000000000000000000000000000000000000000000000000000600052603260045260246000fd5b600081519050919050565b600082825260208201905092915050565b600061333882613311565b613342818561331c565b9350613352818560208601612002565b61335b81612035565b840191505092915050565b600060808201905061337b6000830187612136565b6133886020830186612136565b613395604083018561247a565b81810360608301526133a7818461332d565b905095945050505050565b6000815190506133c181611f57565b92915050565b6000602082840312156133dd576133dc611f21565b5b60006133eb848285016133b2565b91505092915050565b7f4552433732313a206d696e7420746f20746865207a65726f2061646472657373600082015250565b600061342a602083611ff1565b9150613435826133f4565b602082019050919050565b600060208201905081810360008301526134598161341d565b9050919050565b7f4552433732313a20746f6b656e20616c7265616479206d696e74656400000000600082015250565b6000613496601c83611ff1565b91506134a182613460565b602082019050919050565b600060208201905081810360008301526134c581613489565b905091905056fea2646970667358221220d15d864110d6b17a8c01601f4cf607a8d952720ed21e22123928f4e2f326f04764736f6c634300080c0033",
  "linkReferences": {},
  "deployedLinkReferences": {}
}